:020000040800F2
:1000000000280020D5140008651400086B140008AF
:1000100071140008771400087D1400080000000027
:100020000000000000000000000000008314000831
:100030008F140008000000009B140008A71400089B
:100040001D1500081D1500081D1500081D150008C8
:100050001D1500081D1500081D1500081D150008B8
:100060001D1500081D1500081D1500081D150008A8
:100070001D1500081D1500081D1500081D15000898
:100080001D1500081D1500081D1500081D15000888
:100090001D1500081D1500081D1500081D15000878
:1000A0001D1500081D1500081D1500081D15000868
:1000B000B51400081D150008000000001D150008FB
:1000C0001D15000800000000000000001D150008BC
:1000D000000000001D1500081D15000800000000AC
:1000E0001D1500081D1500081D1500080000000062
:1000F0000000000000000000000000000000000000
:0C01000000000000000000005FF808F1A3
:10010C0010B5054C237833B9044B13B10448AFF345
:10011C0000800123237010BD580000200000000057
:10012C00742B000808B5034B1BB103490348AFF30C
:10013C00008008BD000000005C000020742B00084B
:10014C0080B400AF0C4B1B68002B02D10B4B01226F
:10015C001A600B4B1B68002B02D10A4B01221A6050
:10016C00094B1B68002B02D1084B01221A6000BFFF
:10017C00BD4680BC704700BF0C00002074000020FE
:10018C001C000020780000202C0000207C000020A7
:10019C0080B500AF5C4B1B685C4A13605C4B1B6802
:1001AC00594A13604FF400515A4801F09DFC034624
:1001BC001A46574B1A60554B1A68534B1B689A4298
:1001CC0025D1514B1A68524B1B689A421FD1524B86
:1001DC001A684F4B1B689A420DD04D4B1B684E4A08
:1001EC0013604D4B1B68002B11D14C4BC8221A606D
:1001FC00FFF7A6FF0BE0494B1B68013B474A136016
:10020C00464B1B68002B02D1434B01221A60444B16
:10021C001B68444A1360444B1B68414A13604FF4FB
:10022C0080413C4801F060FC03461A463E4B1A6084
:10023C003C4B1A683A4B1B689A4225D1384B1A68CA
:10024C00394B1B689A421FD1384B1A68364B1B68C6
:10025C009A420DD0344B1B68344A1360334B1B68E5
:10026C00002B11D1324BC8221A60FFF769FF0BE04B
:10027C002F4B1B68013B2E4A13602D4B1B68002B28
:10028C0002D12A4B01221A602A4B1B682A4A13609E
:10029C002A4B1B68274A13604FF400411D4801F09C
:1002AC0023FC03461A46254B1A60234B1A68214B34
:1002BC001B689A4225D11F4B1A68204B1B689A4227
:1002CC001FD11F4B1A681D4B1B689A420DD01B4B3C
:1002DC001B681B4A13601A4B1B68002B11D1194B5E
:1002EC00C8221A60FFF72CFF0BE0164B1B68013B72
:1002FC00144A1360134B1B68002B02D1104B0122C4
:10030C001A6000BF80BD00BF040000200000002068
:10031C0008000020001001400C00002030000020DC
:10032C001400002010000020180000201C000020E9
:10033C003400002024000020200000202800002091
:10034C002C0000203800002080B582B000AF78600F
:10035C007B68002B22D100220121BD4801F0DBFB80
:10036C0000220221BA4801F0D6FB00220421B84831
:10037C0001F0D1FB00220821B54801F0CCFB002292
:10038C001021B34801F0C7FB00222021B04801F036
:10039C00C2FB01224021AE4801F0BDFB7B68012B62
:1003AC0022D101220121AA4801F0B5FB0022022131
:1003BC00A74801F0B0FB00220421A54801F0ABFBDB
:1003CC0001220821A24801F0A6FB01221021A0481D
:1003DC0001F0A1FB012220219D4801F09CFB012290
:1003EC0040219B4801F097FB7B68022B22D1002215
:1003FC000121974801F08FFB00220221944801F063
:10040C008AFB01220421924801F085FB002208217D
:10041C008F4801F080FB002210218D4801F07BFBFE
:10042C00012220218A4801F076FB002240218848D5
:10043C0001F071FB7B68032B22D10022012184483F
:10044C0001F069FB00220221814801F064FB0022CB
:10045C0004217F4801F05FFB002208217C4801F059
:10046C005AFB012210217A4801F055FB0122202170
:10047C00774801F050FB00224021754801F04BFBFE
:10048C007B68042B22D101220121714801F043FB2E
:10049C00002202216E4801F03EFB002204216C4830
:1004AC0001F039FB01220821694801F034FB0122DB
:1004BC001021674801F02FFB00222021644801F035
:1004CC002AFB00224021624801F025FB7B68052BAA
:1004DC0022D1002201215E4801F01DFB01220221E4
:1004EC005B4801F018FB00220421594801F013FB72
:1004FC0000220821564801F00EFB0122102154481D
:10050C0001F009FB00222021514801F004FB0022DC
:10051C0040214F4801F0FFFA7B68062B22D10022C4
:10052C0001214B4801F0F7FA01220221484801F061
:10053C00F2FA00220421464801F0EDFA00220821CB
:10054C00434801F0E8FA00221021414801F0E3FA97
:10055C00002220213E4801F0DEFA002240213C48D6
:10056C0001F0D9FA7B68072B22D1002201213848EF
:10057C0001F0D1FA00220221354801F0CCFA002218
:10058C000421334801F0C7FA01220821304801F058
:10059C00C2FA012210212E4801F0BDFA01222021BD
:1005AC002B4801F0B8FA01224021294801F0B3FA96
:1005BC007B68082B22D100220121254801F0ABFADF
:1005CC0000220221224801F0A6FA00220421204830
:1005DC0001F0A1FA002208211D4801F09CFA00222A
:1005EC0010211B4801F097FA00222021184801F035
:1005FC0092FA00224021164801F08DFA7B68092BF3
:10060C0022D100220121124801F085FA0022022198
:10061C000F4801F080FA002204210D4801F07BFA0A
:10062C00002208210A4801F076FA0122102108481C
:10063C0001F071FA00222021054801F06CFA002229
:10064C004021034801F067FA00BF0837BD4680BD62
:10065C00000C014080B500AF01220121114801F0CE
:10066C005AFA012202210F4801F055FA0122042105
:10067C000C4801F050FA012208210A4801F04BFA0B
:10068C0001221021074801F046FA012220210548D9
:10069C0001F041FA01224021024801F03CFA00BF6E
:1006AC0080BD00BF000C014080B483B000AF786007
:1006BC0039607B68184A82FB03129210DB17D31A3D
:1006CC00164A13607968144B83FB01239A10CB17DD
:1006DC00D21A13469B0013445B00CA1A0F4B5A6084
:1006EC003B680D4A82FB03129210DB17D31A0B4A9C
:1006FC0093603968084B83FB01239A10CB17D21AED
:10070C0013469B0013445B00CA1A044BDA6000BF0B
:10071C000C37BD4680BC704767666666B400002027
:10072C0080B584B000AFF860B9607A60664B1B6826
:10073C00042B00F2BB8001A252F823F077070008CB
:10074C00C907000819080008690800085D070008B7
:10075C00FFF780FFB968F868FFF7A6FF5A4B002235
:10076C001A60786800F0FCFCA9E000224FF480517C
:10077C00564801F0D0F901224FF40051534801F0D2
:10078C00CAF901224FF48041504801F0C4F901220A
:10079C004FF400414D4801F0BEF94D4B1B68184613
:1007AC00FFF7D2FD4B4B1B68012B40F08180464B71
:1007BC0001221A60786800F0D3FC79E001224FF432
:1007CC008051424801F0A7F900224FF400513F48F4
:1007DC0001F0A1F901224FF480413C4801F09BF952
:1007EC0001224FF40041394801F095F9384B5B6810
:1007FC001846FFF7A9FD374B1B68012B5AD1324B1A
:10080C0002221A60786800F0ABFC53E001224FF42E
:10081C0080512E4801F07FF901224FF400512B48F2
:10082C0001F079F900224FF48041284801F073F966
:10083C0001224FF40041254801F06DF9244B9B68CF
:10084C001846FFF781FD234B1B68012B34D11E4B3F
:10085C0003221A60786800F083FC2DE001224FF42B
:10086C0080511A4801F057F901224FF400511748F2
:10087C0001F051F901224FF48041144801F04BF979
:10088C0000224FF40041114801F045F9104BDB6890
:10089C001846FFF759FD0F4B1B68012B0ED10A4B65
:1008AC0000221A60786800F05BFC07E000BF06E0ED
:1008BC0000BF04E000BF02E000BF00E000BF00BFCB
:1008CC001037BD4680BD00BF3C0000200008014031
:1008DC00B40000208400002080B500AF002210215D
:1008EC000F4801F018F9002220210D4801F013F9EE
:1008FC00002240210A4801F00EF90022802108480C
:10090C0001F009F900224FF48071054801F003F958
:10091C0000224FF40071024801F0FDF800BF80BDC9
:10092C000008014080B500AFA14B1B68062B00F2FC
:10093C00BD8101A252F823F061090008B90C00082E
:10094C00B90C0008B90C0008A5090008E10B000857
:10095C00D90A0008974B1B68974A1360964B1B6883
:10096C0000211846FFF7A0FE934B1B68FA220021CA
:10097C001846FFF7D5FE8F4B1B684FF47A7202FBBB
:10098C0003F3184600F008FC4FF47A7000F020FCDA
:10099C00874B04221A6090E101221021874801F054
:1009AC00BAF800222021854801F0B5F80022402138
:1009BC00824801F0B0F8804B1A68814B1B689A4250
:1009CC0026DD002280217D4801F0A5F800224FF49D
:1009DC0080717A4801F09FF801224FF4007177483A
:1009EC0001F099F8744B1868734B1A68744B1B68B8
:1009FC00D31A1946FFF758FE6F4B18686E4B1A68DE
:100A0C006F4B1B68D31AFA221946FFF789FE20E0B8
:100A1C0000228021694801F07EF801224FF4807198
:100A2C00664801F078F800224FF40071634801F039
:100A3C0072F8614B1B68604A126811461846FFF742
:100A4C0033FE5D4B1B685C4A1168FA221846FFF7AF
:100A5C0067FE5C4B1B68012B08D1574B1B68013B95
:100A6C00554A13604FF47A7000F0B2FB564B1B687A
:100A7C00012B13D1554B1B684F4A13604C4B06226C
:100A8C001A60524B1B684FF47A7202FB03F3184640
:100A9C0000F082FB4FF47A7000F09AFB4C4B1B6811
:100AAC00012B40F005814A4B00221A60404B012279
:100ABC001A60002000F070FB002000F089FB4FF45E
:100ACC00FA7000F0A1FBFFF707FFF1E00022102104
:100ADC003A4801F020F800222021384801F01BF898
:100AEC0001224021354801F016F8012280213348BB
:100AFC0001F011F800224FF48071304801F00BF82E
:100B0C0000224FF400712D4801F005F82A4B1868AB
:100B1C00294B1A682A4B1B6813441946FFF7C4FD6E
:100B2C00254B1868244B1A68254B1B681344FA2272
:100B3C001946FFF7F5FD234B1B68012B08D11E4B03
:100B4C001B68013B1C4A13604FF47A7000F040FBA9
:100B5C001D4B1B68012B13D1194B1B68164A1360D4
:100B6C00134B05221A60164B1B684FF47A7202FB6A
:100B7C0003F3184600F010FB4FF47A7000F028FBDA
:100B8C00134B1B68012B40F09580114B00221A600F
:100B9C00074B01221A60002000F0FEFA002000F042
:100BAC0017FB4FF4FA7000F02FFBFFF795FE81E076
:100BBC008000002040000020C400002000080140FC
:100BCC00440000208C0000208800002048000020F9
:100BDC007400002000221021394800F09CFF0122F3
:100BEC002021374800F097FF00224021344800F0C4
:100BFC0092FF01228021324800F08DFF00224FF439
:100C0C0080712F4800F087FF00224FF400712C48B0
:100C1C0000F081FF2B4B1B682A4A126811461846BC
:100C2C00FFF742FD274B1B68264A1168FA2218462B
:100C3C00FFF776FD244B1B68012B08D1214B1B6859
:100C4C00013B204A13604FF47A7000F0C1FA1F4B3D
:100C5C001B68012B13D11E4B1B681A4A13601D4BCA
:100C6C0004221A601A4B1B684FF47A7202FB03F3CE
:100C7C00184600F091FA4FF47A7000F0A9FA164B6E
:100C8C001B68012B18D1144B00221A60114B012246
:100C9C001A60002000F080FA002000F099FA4FF45E
:100CAC00FA7000F0B1FAFFF717FE05E000BF04E0A0
:100CBC0000BF02E000BF00E000BF00BF80BD00BF6E
:100CCC0000080140C40000208C0000208800002097
:100CDC0040000020800000207400002080B500AF90
:100CEC00854B1B68032B00F0AE80032B00F3FA80BE
:100CFC00012B02D0022B53D0F4E0804B1B68022155
:100D0C001846FFF7D1FC7D4B1B68FA2202211846CE
:100D1C00FFF706FD7A4B1B68012B0BD1102179488C
:100D2C0000F011FF8021774800F00DFF4FF4FA70AE
:100D3C0000F06AFA744B1B68012B15D1724B002220
:100D4C001A606E4B1B6801336C4A13606B4B1B684B
:100D5C00632B02DD694B01221A60684B1B68FA2277
:100D6C0002211846FFF7DCFC684B1B68012B05D1F0
:100D7C00664B00221A60604B00221A60644B1B68A1
:100D8C00012B40F0B180624B00221A605A4B0222B8
:100D9C001A604FF4FA7000F053FAFFF79DFDA3E0D0
:100DAC005C4B1B6803211846FFF77EFC594B1B68F4
:100DBC00FA2203211846FFF7B3FC574B1B68012B93
:100DCC000CD120214F4800F0BEFE4FF480714D48ED
:100DDC0000F0B9FE4FF4FA7000F032FA4A4B1B687F
:100DEC00012B15D1484B00221A604A4B1B6801336A
:100DFC00484A1360474B1B68632B02DD454B0122AD
:100E0C001A60444B1B68FA2203211846FFF788FC32
:100E1C003E4B1B68012B05D13C4B00221A60364B14
:100E2C0000221A603A4B1B68012B5FD1384B002211
:100E3C001A60314B03221A604FF4FA7000F01CFA5E
:100E4C00FFF74AFD52E0354B1B6804211846FFF7AB
:100E5C002BFC324B1B68FA2204211846FFF760FC6E
:100E6C002F4B1B68012B0CD14021264800F06BFE48
:100E7C004FF40071234800F066FE4FF4FA7000F056
:100E8C00FBF9214B1B68012B15D11F4B00221A605B
:100E9C00224B1B680133214A1360204B1B68632BC8
:100EAC0002DD1E4B01221A601C4B1B68FA22042126
:100EBC001846FFF735FC154B1B68012B05D1134B5E
:100ECC0000221A600C4B00221A60114B1B68012B7C
:100EDC000ED10F4B00221A60074B00221A60FFF74D
:100EEC00FBFC05E000BF04E000BF02E000BF00E037
:100EFC0000BF00BF80BD00BF80000020400000206C
:100F0C009000002000080140780000207C000020A8
:100F1C0074000020440000209400002048000020B1
:100F2C009800002080B582B000AF786000F0C0F966
:100F3C00FFF72EF900BF0837BD4680BD80B500AF66
:100F4C0000F0E8FA00F00EF800F094F800F046F823
:100F5C00034801F049FAFFF7E5FCFFF7BFFEFAE79B
:100F6C00C800002080B590B000AF07F1180328220C
:100F7C000021184601F0F0FD3B1D00221A605A605A
:100F8C009A60DA601A610223BB610123BB621023F1
:100F9C00FB6200237B6307F11803184600F0ECFD9D
:100FAC000346002B01D000F0D5F80F237B60002303
:100FBC00BB600023FB6000233B6100237B613B1D76
:100FCC000021184601F058F80346002B01D000F020
:100FDC00C1F800BF4037BD4680BD000080B586B06B
:100FEC0000AF07F1080300221A605A609A60DA60B9
:100FFC003B4600221A605A601D4B4FF080421A602B
:10100C001B4B41F63F725A60194B00229A60184BE9
:10101C000922DA60164B00221A61154B00229A61E4
:10102C00134801F091F90346002B01D000F092F81F
:10103C004FF48053BB6007F1080319460C4801F0CC
:10104C0027FB0346002B01D000F084F800233B6003
:10105C0000237B603B461946054801F0EFFC034634
:10106C00002B01D000F076F800BF1837BD4680BDCC
:10107C00C800002080B588B000AF07F11003002233
:10108C001A605A609A60DA602E4B9B692D4A43F0C5
:10109C00100393612B4B9B6903F01003FB60FB68FF
:1010AC00284B9B69274A43F004039361254B9B69AA
:1010BC0003F00403BB60BB68224B9B69214A43F0DD
:1010CC00080393611F4B9B6903F008037B607B68EB
:1010DC0000224FF2F0311C4800F01DFD00227F2150
:1010EC001A4800F018FD4FF460433B6100237B610C
:1010FC000123BB6107F110031946154800F07AFB78
:10110C004FF2F0333B6101237B610023BB6102236F
:10111C00FB6107F1100319460B4800F06BFB7F23B2
:10112C003B6101237B610023BB610223FB6107F15F
:10113C0010031946054800F05DFB00BF2037BD4683
:10114C0080BD00BF0010024000080140000C0140AF
:10115C000010014080B400AF72B600BFFEE7000083
:10116C0080B483B000AF78607B68084A82FB0312BE
:10117C009210DB17D31A064A1360064B00221A6032
:10118C0000BF0C37BD4680BC704700BF6766666603
:10119C009C0000208400002080B483B000AF7860F5
:1011AC007B68084A82FB03129210DB17D31A064A9B
:1011BC001360064B00221A6000BF0C37BD4680BC82
:1011CC00704700BF67666666A0000020880000209C
:1011DC0080B483B000AF78607B68084A82FB03124E
:1011EC009210DB17D31A064A1360064B00221A60C2
:1011FC0000BF0C37BD4680BC704700BF6766666693
:10120C00A40000208C00002080B483B000AF786074
:10121C007B68084A82FB03129210DB17D31A064A2A
:10122C001360064B00221A6000BF0C37BD4680BC11
:10123C00704700BF67666666A8000020900000201B
:10124C0080B483B000AF78607B68084A82FB0312DD
:10125C009210DB17D31A064A1360064B00221A6051
:10126C0000BF0C37BD4680BC704700BF6766666622
:10127C00AC0000209400002080B483B000AF7860F4
:10128C007B68084A82FB03129210DB17D31A064ABA
:10129C001360064B00221A6000BF0C37BD4680BCA1
:1012AC00704700BF67666666B0000020980000209B
:1012BC0080B400AF314B1B68002B0BDD2F4B1B6830
:1012CC00013B2E4A13602D4B1B68002B02DC2C4B70
:1012DC0001221A602B4B1B68002B0BDD294B1B6862
:1012EC00013B284A1360274B1B68002B02DC264B62
:1012FC0001221A60254B1B68002B0BDD234B1B684E
:10130C00013B224A1360214B1B68002B02DC204B53
:10131C0001221A601F4B1B68002B0BDD1D4B1B6839
:10132C00013B1C4A13601B4B1B68002B02DC1A4B45
:10133C0001221A60194B1B68002B0BDD174B1B6825
:10134C00013B164A1360154B1B68002B02DC144B37
:10135C0001221A60134B1B68002B0BDD114B1B6811
:10136C00013B104A13600F4B1B68002B02DC0E4B29
:10137C0001221A6000BFBD4680BC70479C00002053
:10138C0084000020A000002088000020A400002081
:10139C008C000020A800002090000020AC00002051
:1013AC0094000020B00000209800002080B485B08C
:1013BC0000AF154B9B69144A43F001039361124B28
:1013CC009B6903F00103BB60BB680F4BDB690E4AE2
:1013DC0043F08053D3610C4BDB6903F080537B608B
:1013EC007B680A4B5B68FB60FB6823F0E063FB6087
:1013FC00FB6843F08063FB60044AFB68536000BFEA
:10140C001437BD4680BC70470010024000000140FC
:10141C0080B584B000AF78607B681B68B3F1804FF7
:10142C0013D10C4BDB690B4A43F00103D361094B1D
:10143C00DB6903F00103FB60FB68002200211C2028
:10144C0000F0A1F91C2000F0BAF900BF1037BD461E
:10145C0080BD00BF0010024080B400AFFEE780B436
:10146C0000AFFEE780B400AFFEE780B400AFFEE74C
:10147C0080B400AFFEE780B400AF00BFBD4680BCB7
:10148C00704780B400AF00BFBD4680BC704780B4CD
:10149C0000AF00BFBD4680BC704780B500AF00F008
:1014AC007FF800BF80BD000080B500AF024800F09F
:1014BC00E7FF00BF80BD00BFC800002080B400AFB4
:1014CC0000BFBD4680BC70470C480D490D4A002337
:1014DC0002E0D458C4500433C4188C42F9D30A4ADD
:1014EC000A4C002301E013600432A242FBD3FFF745
:1014FC00E5FF01F00DFBFFF721FD70470000002018
:10150C0058000020B42B00085800002014010020C3
:10151C00FEE7000080B500AF084B1B68074A43F09C
:10152C0010031360032000F023F90F2000F008F8DB
:10153C00FFF73CFF0023184680BD00BF002002408F
:10154C0080B582B000AF7860124B1A68124B1B78D2
:10155C0019464FF47A73B3FBF1F3B2FBF3F318466D
:10156C0000F03BF90346002B01D001230EE07B6811
:10157C000F2B0AD8002279684FF0FF3000F003F9E6
:10158C00064A7B681360002300E0012318460837E5
:10159C00BD4680BD4C0000205400002050000020AF
:1015AC0080B400AF054B1B781A46054B1B681344DF
:1015BC00034A136000BFBD4680BC70475400002036
:1015CC001001002080B400AF024B1B681846BD46CA
:1015DC0080BC70471001002080B485B000AF7860EB
:1015EC007B6803F00703FB600C4BDB68BB60BA68DD
:1015FC004FF6FF031340BB60FB681A02BB68134332
:10160C0043F0BF6343F40033BB60044ABB68D36050
:10161C0000BF1437BD4680BC704700BF00ED00E032
:10162C0080B400AF044BDB681B0A03F007031846B9
:10163C00BD4680BC704700BF00ED00E080B483B0B5
:10164C0000AF0346FB7197F90730002B0BDBFB79DE
:10165C0003F01F02064997F907305B09012000FAD5
:10166C0002F241F8232000BF0C37BD4680BC704706
:10167C0000E100E080B483B000AF03463960FB7139
:10168C0097F90730002B0ADB3B68DAB20C4997F963
:10169C0007301201D2B20B4483F800230AE03B68F6
:1016AC00DAB20849FB7903F00F03043B1201D2B202
:1016BC000B441A7600BF0C37BD4680BC704700BF88
:1016CC0000E100E000ED00E080B489B000AFF8600C
:1016DC00B9607A60FB6803F00703FB61FB69C3F137
:1016EC000703042B28BF0423BB61FB690433062BBF
:1016FC0002D9FB69033B00E000237B614FF0FF3212
:10170C00BB6902FA03F3DA43BB681A407B699A405F
:10171C004FF0FF317B6901FA03F3D9437B680B402F
:10172C00134318462437BD4680BC704780B582B041
:10173C0000AF78607B68013BB3F1807F01D301235C
:10174C000FE00A4A7B68013B53600F214FF0FF30DA
:10175C00FFF790FF054B00229A60044B07221A609A
:10176C00002318460837BD4680BD00BF10E000E0DE
:10177C0080B582B000AF78607868FFF72DFF00BFAE
:10178C000837BD4680BD80B586B000AF0346B96052
:10179C007A60FB7300237B61FFF742FF78617A6804
:1017AC00B9687869FFF790FF024697F90F30114638
:1017BC001846FFF75FFF00BF1837BD4680BD80B5E8
:1017CC0082B000AF0346FB7197F907301846FFF75C
:1017DC0035FF00BF0837BD4680BD80B582B000AF75
:1017EC0078607868FFF7A2FF034618460837BD46B5
:1017FC0080BD000080B48BB000AF786039600023EE
:10180C007B6200233B6248E101227B6A02FA03F30C
:10181C00FB613B681B68FA691340BB61BA69FB69E1
:10182C009A4240F037813B685B68A34A93425ED092
:10183C00A14A934275D8A14A934258D09F4A9342E9
:10184C006FD89F4A934252D09D4A934269D89D4A81
:10185C0093424CD09B4A934263D89B4A934246D0C6
:10186C00994A93425DD8122B2AD8122B59D801A22F
:10187C0052F823F0FB180008D5180008E7180008E8
:10188C00291900082F1900082F1900082F19000812
:10189C002F1900082F1900082F1900082F190008FC
:1018AC002F1900082F1900082F1900082F190008EC
:1018BC002F1900082F190008DD180008F11800086E
:1018CC00824A934213D02CE03B68DB683B6229E0F0
:1018DC003B68DB6804333B6224E03B68DB6808331D
:1018EC003B621FE03B68DB680C333B621AE03B68F1
:1018FC009B68002B02D104233B6213E03B689B687E
:10190C00012B05D108233B627B68FA691A6109E057
:10191C0008233B627B68FA695A6103E000233B624F
:10192C0000E000BFBB69FF2B01D87B6801E07B683E
:10193C0004337B61BB69FF2B02D87B6A9B0002E0FE
:10194C007B6A083B9B003B617B691A680F213B69F2
:10195C0001FA03F3DB431A40396A3B6901FA03F3DA
:10196C001A437B691A603B685B6803F08053002B59
:10197C0000F09080564B9B69554A43F001039361EC
:10198C00534B9B6903F00103BB60BB68514A7B6AF4
:10199C009B08023352F82330FB607B6A03F003038D
:1019AC009B000F2202FA03F3DB43FA681340FB603F
:1019BC007B68494A93420DD07B68484A934207D0D2
:1019CC007B68474A934201D1022304E0032302E0DF
:1019DC00012300E000237A6A02F003029200934094
:1019EC00FA681343FB603B497B6A9B080233FA6835
:1019FC0041F823203B685B6803F48033002B06D04E
:101A0C00384B1A683749BB6913430B6006E0354BFA
:101A1C001A68BB69DB43334913400B603B685B6856
:101A2C0003F40033002B06D02E4B5A682D49BB69AA
:101A3C0013434B6006E02B4B5A68BB69DB432949C7
:101A4C0013404B603B685B6803F48013002B06D09B
:101A5C00244B9A682349BB6913438B6006E0214BE6
:101A6C009A68BB69DB431F4913408B603B685B681A
:101A7C0003F40013002B06D01A4BDA681949BB6922
:101A8C001343CB6006E0174BDA68BB69DB4315499F
:101A9C001340CB607B6A01337B623B681A687B6ABC
:101AAC0022FA03F3002B7FF4AFAE00BF00BF2C373C
:101ABC00BD4680BC704700BF0000321000003110E2
:101ACC000000221000002110000012100000111064
:101ADC00001002400000014000080140000C0140D1
:101AEC00001001400004014080B485B000AF786064
:101AFC000B467B807B689A687B881340002B02D056
:101B0C000123FB7301E00023FB73FB7B18461437A6
:101B1C00BD4680BC704780B483B000AF78600B4684
:101B2C007B8013467B707B78002B03D07A887B6894
:101B3C001A6103E07B881A047B681A6100BF0C37BA
:101B4C00BD4680BC704780B485B000AF78600B4652
:101B5C007B807B68DB68FB607A88FB6813401A0427
:101B6C00FB68D9437B880B401A437B681A6100BF22
:101B7C001437BD4680BC704780B586B000AF786026
:101B8C007B68002B01D101236CE27B681B6803F09E
:101B9C000103002B00F08780924B5B6803F00C0371
:101BAC00042B0CD08F4B5B6803F00C03082B12D169
:101BBC008C4B5B6803F48033B3F5803F0BD1894BBE
:101BCC001B6803F40033002B6CD07B685B68002B24
:101BDC0068D1012346E27B685B68B3F5803F06D190
:101BEC00804B1B687F4A43F4803313602EE07B6884
:101BFC005B68002B0CD17B4B1B687A4A23F4803337
:101C0C001360784B1B68774A23F4802313601DE024
:101C1C007B685B68B3F5A02F0CD1724B1B68714AC3
:101C2C0043F4802313606F4B1B686E4A43F480337C
:101C3C0013600BE06B4B1B686A4A23F48033136010
:101C4C00684B1B68674A23F4802313607B685B68CE
:101C5C00002B13D0FFF7B6FC386108E0FFF7B2FC9D
:101C6C0002463B69D31A642B01D90323FAE15D4B7D
:101C7C001B6803F40033002BF0D014E0FFF7A2FC38
:101C8C00386108E0FFF79EFC02463B69D31A642BCF
:101C9C0001D90323E6E1534B1B6803F40033002BFB
:101CAC00F0D100E000BF7B681B6803F00203002B3F
:101CBC0063D04C4B5B6803F00C03002B0BD0494BEF
:101CCC005B6803F00C03082B1CD1464B5B6803F4D8
:101CDC008033002B16D1434B1B6803F00203002BFF
:101CEC0005D07B681B69012B01D00123BAE13D4B68
:101CFC001B6823F0F8027B685B69DB0039491343EE
:101D0C000B603AE07B681B69002B20D0364B01221C
:101D1C001A60FFF757FC386108E0FFF753FC0246E6
:101D2C003B69D31A022B01D903239BE12D4B1B6872
:101D3C0003F00203002BF0D02A4B1B6823F0F802AF
:101D4C007B685B69DB00274913430B6015E0264B6E
:101D5C0000221A60FFF736FC386108E0FFF732FC0E
:101D6C0002463B69D31A022B01D903237AE11D4B9E
:101D7C001B6803F00203002BF0D17B681B6803F097
:101D8C000803002B3AD07B689B69002B19D0174BAA
:101D9C0001221A60FFF716FC386108E0FFF712FC0D
:101DAC0002463B69D31A022B01D903235AE10D4B8E
:101DBC005B6A03F00203002BF0D0012000F0A6FABE
:101DCC001CE00A4B00221A60FFF7FCFB38610FE0A5
:101DDC00FFF7F8FB02463B69D31A022B08D9032301
:101DEC0040E100BF00100240000042428004424229
:101DFC009E4B5B6A03F00203002BE9D17B681B68E6
:101E0C0003F00403002B00F0A6800023FB75974B16
:101E1C00DB6903F08053002B0DD1944BDB69934AA3
:101E2C0043F08053D361914BDB6903F08053BB606B
:101E3C00BB680123FB758E4B1B6803F48073002B6E
:101E4C0018D18B4B1B688A4A43F480731360FFF7DD
:101E5C00B9FB386108E0FFF7B5FB02463B69D31AC2
:101E6C00642B01D90323FDE0814B1B6803F48073C1
:101E7C00002BF0D07B68DB68012B06D17B4B1B6AF7
:101E8C007A4A43F0010313622DE07B68DB68002B78
:101E9C000CD1764B1B6A754A23F001031362734B0A
:101EAC001B6A724A23F0040313621CE07B68DB6834
:101EBC00052B0CD16D4B1B6A6C4A43F00403136267
:101ECC006A4B1B6A694A43F0010313620BE0674BD0
:101EDC001B6A664A23F001031362644B1B6A634A54
:101EEC0023F0040313627B68DB68002B15D0FFF72B
:101EFC0069FB38610AE0FFF765FB02463B69D31AC0
:101F0C0041F28832934201D90323ABE0574B1B6A51
:101F1C0003F00203002BEED014E0FFF753FB386103
:101F2C000AE0FFF74FFB02463B69D31A41F28832B5
:101F3C00934201D9032395E04C4B1B6A03F0020337
:101F4C00002BEED1FB7D012B05D1484BDB69474AB9
:101F5C0023F08053D3617B68DB69002B00F0818018
:101F6C00424B5B6803F00C03082B61D07B68DB6988
:101F7C00022B46D13F4B00221A60FFF723FB38613E
:101F8C0008E0FFF71FFB02463B69D31A022B01D96D
:101F9C00032367E0354B1B6803F00073002BF0D173
:101FAC007B681B6AB3F5803F08D1304B5B6823F428
:101FBC0000327B689B682D4913434B602B4B5B684D
:101FCC0023F474127B68196A7B685B6A0B4327499C
:101FDC0013434B60274B01221A60FFF7F3FA386169
:101FEC0008E0FFF7EFFA02463B69D31A022B01D93E
:101FFC00032337E01D4B1B6803F00073002BF0D05C
:10200C002FE01C4B00221A60FFF7DCFA386108E065
:10201C00FFF7D8FA02463B69D31A022B01D90323E6
:10202C0020E0124B1B6803F00073002BF0D118E07A
:10203C007B68DB69012B01D1012313E00B4B5B683F
:10204C00FB60FB6803F480327B681B6A9A4206D102
:10205C00FB6803F470127B685B6A9A4201D001231F
:10206C0000E0002318461837BD4680BD0010024022
:10207C00007000406000424280B584B000AF7860D0
:10208C0039607B68002B01D10123D0E06A4B1B68BF
:10209C0003F007033A689A4210D9674B1B6823F088
:1020AC00070265493B6813430B60634B1B6803F0E5
:1020BC0007033A689A4201D00123B8E07B681B6899
:1020CC0003F00203002B20D07B681B6803F0040391
:1020DC00002B05D0594B5B68584A43F4E0635360BE
:1020EC007B681B6803F00803002B05D0534B5B681F
:1020FC00524A43F460535360504B5B6823F0F00238
:10210C007B689B684D4913434B607B681B6803F0ED
:10211C000103002B40D07B685B68012B07D1474B38
:10212C001B6803F40033002B15D101237FE07B687F
:10213C005B68022B07D1414B1B6803F00073002B2B
:10214C0009D1012373E03D4B1B6803F00203002B04
:10215C0001D101236BE0394B5B6823F003027B68F0
:10216C005B68364913434B60FFF72CFAF8600AE0C2
:10217C00FFF728FA0246FB68D31A41F288329342E1
:10218C0001D9032353E02D4B5B6803F00C027B68F1
:10219C005B689B009A42EBD1274B1B6803F007034B
:1021AC003A689A4210D2244B1B6823F0070222494A
:1021BC003B6813430B60204B1B6803F007033A6822
:1021CC009A4201D0012332E07B681B6803F00403C0
:1021DC00002B08D0194B5B6823F4E0627B68DB684A
:1021EC00164913434B607B681B6803F00803002BF4
:1021FC0009D0124B5B6823F460527B681B69DB00CF
:10220C000E4913434B6000F021F802460B4B5B6800
:10221C001B0903F00F030A49CB5C22FA03F3094AAA
:10222C001360094B1B681846FFF78AF90023184600
:10223C001037BD4680BD00BF002002400010024098
:10224C009C2B00084C0000205000002090B48AB059
:10225C0000AF2A4B3C1D0FCB84E80F0040F201234A
:10226C003B800023FB610023BB6100237B620023C6
:10227C007B6100233B62224B5B68FB61FB6903F0D3
:10228C000C03042B02D0082B03D02DE01D4B3B621A
:10229C002DE0FB699B0C03F00F0307F1280213449C
:1022AC0013F8243C7B61FB6903F48033002B13D0BF
:1022BC00134B5B685B0C03F0010307F1280213441A
:1022CC0013F8283CBB617B690E4A02FB03F2BB6925
:1022DC00B2FBF3F37B6204E07B690B4A02FB03F372
:1022EC007B627B6A3B6202E0064B3B6200BF3B6A4F
:1022FC0018462837BD4690BC704700BF8C2B000891
:10230C000010024000127A0000093D0080B485B034
:10231C0000AF78600A4B1B680A4AA2FB03235B0AD6
:10232C007A6802FB03F3FB6000BFFB685A1EFA607D
:10233C00002BF9D100BF00BF1437BD4680BC7047DD
:10234C004C000020D34D621080B582B000AF786095
:10235C007B68002B01D1012341E07B6893F83D3071
:10236C00DBB2002B06D17B68002283F83C20786816
:10237C00FFF74EF87B68022283F83D207B681A68D1
:10238C007B6804331946104600F06AFA7B68012218
:10239C0083F846207B68012283F83E207B6801226B
:1023AC0083F83F207B68012283F840207B68012260
:1023BC0083F841207B68012283F842207B6801224C
:1023CC0083F843207B68012283F844207B68012238
:1023DC0083F845207B68012283F83D2000231846B2
:1023EC000837BD4680BD000080B485B000AF786072
:1023FC007B6893F83D30DBB2012B01D0012335E033
:10240C007B68022283F83D207B681B68DA687B6856
:10241C001B6842F00102DA607B681B68164A934223
:10242C0009D07B681B68B3F1804F04D07B681B68B4
:10243C00124A934211D17B681B689B6803F0070317
:10244C00FB60FB68062B10D07B681B681A687B68E6
:10245C001B6842F001021A6007E07B681B681A686F
:10246C007B681B6842F001021A600023184614377F
:10247C00BD4680BC704700BF002C014000040040EA
:10248C0080B582B000AF78607B681B681B6903F075
:10249C000203022B22D17B681B68DB6803F002036A
:1024AC00022B1BD17B681B686FF002021A617B68E0
:1024BC0001221A777B681B689B6903F00303002BCE
:1024CC0003D0786800F0B1F905E0786800F0A4F961
:1024DC00786800F0B3F97B6800221A777B681B6878
:1024EC001B6903F00403042B22D17B681B68DB6897
:1024FC0003F00403042B1BD17B681B686FF00402F0
:10250C001A617B6802221A777B681B689B6903F44B
:10251C004073002B03D0786800F087F905E07868E9
:10252C0000F07AF9786800F089F97B6800221A7754
:10253C007B681B681B6903F00803082B22D17B689E
:10254C001B68DB6803F00803082B1BD17B681B6836
:10255C006FF008021A617B6804221A777B681B688B
:10256C00DB6903F00303002B03D0786800F05DF9FE
:10257C0005E0786800F050F9786800F05FF97B6846
:10258C0000221A777B681B681B6903F01003102B61
:10259C0022D17B681B68DB6803F01003102B1BD166
:1025AC007B681B686FF010021A617B6808221A772F
:1025BC007B681B68DB6903F44073002B03D07868DD
:1025CC0000F033F905E0786800F026F9786800F03F
:1025DC0035F97B6800221A777B681B681B6903F04E
:1025EC000103012B0ED17B681B68DB6803F0010330
:1025FC00012B07D17B681B686FF001021A617868A8
:10260C00FEF790FC7B681B681B6903F08003802B32
:10261C000ED17B681B68DB6803F08003802B07D12D
:10262C007B681B686FF080021A61786800F067FAAB
:10263C007B681B681B6903F04003402B0ED17B6841
:10264C001B68DB6803F04003402B07D17B681B68D9
:10265C006FF040021A61786800F0F9F87B681B682B
:10266C001B6903F02003202B0ED17B681B68DB68F1
:10267C0003F02003202B07D17B681B686FF020022E
:10268C001A61786800F032FA00BF0837BD4680BD89
:10269C0080B584B000AF786039607B6893F83C30CB
:1026AC00012B01D10223B3E07B68012283F83C208B
:1026BC007B68022283F83D207B681B689B68FB606B
:1026CC00FB6823F07703FB60FB6823F47F43FB601C
:1026DC007B681B68FA689A603B681B68B3F5005FFF
:1026EC003ED0B3F5005F00F28780B3F5805F00F059
:1026FC008580B3F5805F7FD8702B1AD0702B7BD878
:10270C00602B50D0602B77D8502B3CD0502B73D8EB
:10271C00402B58D0402B6FD8302B64D0302B6BD83B
:10272C00202B60D0202B67D8002B5CD0102B5AD0DC
:10273C0062E07B6818683B6899683B685A683B683C
:10274C00DB6800F05CF97B681B689B68FB60FB68CE
:10275C0043F07703FB607B681B68FA689A604EE075
:10276C007B6818683B6899683B685A683B68DB680B
:10277C0000F045F97B681B689A687B681B6842F41B
:10278C0080429A603BE07B6818683B6859683B68FC
:10279C00DB681A4600F0BCF87B681B6850211846B1
:1027AC0000F013F92BE07B6818683B6859683B68AC
:1027BC00DB681A4600F0DAF87B681B686021184663
:1027CC0000F003F91BE07B6818683B6859683B68AC
:1027DC00DB681A4600F09CF87B681B6840211846A1
:1027EC0000F0F3F80BE07B681A683B681B6819462D
:1027FC00104600F0EAF802E000BF00E000BF7B6882
:10280C00012283F83D207B68002283F83C200023C2
:10281C0018461037BD4680BD80B483B000AF7860D9
:10282C0000BF0C37BD4680BC704780B483B000AF8E
:10283C00786000BF0C37BD4680BC704780B483B055
:10284C0000AF786000BF0C37BD4680BC704780B4C9
:10285C0083B000AF786000BF0C37BD4680BC7047BA
:10286C0080B485B000AF786039607B681B68FB6012
:10287C007B68254A934207D07B68B3F1804F03D025
:10288C007B68224A934208D1FB6823F07003FB60FB
:10289C003B685B68FA681343FB607B681A4A934297
:1028AC0007D07B68B3F1804F03D07B68174A934203
:1028BC0008D1FB6823F44073FB603B68DB68FA6863
:1028CC001343FB60FB6823F080023B685B69134396
:1028DC00FB607B68FA681A603B689A687B68DA620E
:1028EC003B681A687B689A627B68074A934203D1FB
:1028FC003B681A697B681A637B6801225A6100BFC6
:10290C001437BD4680BC7047002C014000040040C9
:10291C0080B487B000AFF860B9607A60FB681B6A5E
:10292C007B61FB681B6A23F00102FB681A62FB687F
:10293C009B693B613B6923F0F0033B617B681B01A6
:10294C003A6913433B617B6923F00A037B617A6923
:10295C00BB6813437B61FB683A699A61FB687A69CF
:10296C001A6200BF1C37BD4680BC704780B487B06C
:10297C0000AFF860B9607A60FB681B6A23F0100244
:10298C00FB681A62FB689B697B61FB681B6A3B6195
:10299C007B6923F470437B617B681B037A69134367
:1029AC007B613B6923F0A0033B61BB681B013A6967
:1029BC0013433B61FB687A699A61FB683A691A6256
:1029CC0000BF1C37BD4680BC704780B485B000AFDB
:1029DC00786039607B689B68FB60FB6823F0700350
:1029EC00FB603A68FB68134343F00703FB607B68AA
:1029FC00FA689A6000BF1437BD4680BC704780B43B
:102A0C0087B000AFF860B9607A603B60FB689B6888
:102A1C007B617B6923F47F437B613B681A027B6893
:102A2C001A43BB6813437A6913437B61FB687A6969
:102A3C009A6000BF1C37BD4680BC704780B485B01F
:102A4C0000AF786039607B6893F83C30012B01D182
:102A5C00022341E07B68012283F83C207B68022240
:102A6C0083F83D207B681B685B68FB607B681B6898
:102A7C009B68BB60FB6823F07003FB603B681B68C2
:102A8C00FA681343FB607B681B68FA685A607B68C2
:102A9C001B68144A934209D07B681B68B3F1804FC2
:102AAC0004D07B681B68104A93420CD1BB6823F09E
:102ABC008003BB603B685B68BA681343BB607B6890
:102ACC001B68BA689A607B68012283F83D207B689A
:102ADC00002283F83C20002318461437BD4680BCE6
:102AEC00704700BF002C01400004004080B483B04C
:102AFC0000AF786000BF0C37BD4680BC704780B417
:102B0C0083B000AF786000BF0C37BD4680BC704707
:102B1C0070B500260C4D0D4C641BA410A64209D1B7
:102B2C0000F022F800260A4D0A4C641BA410A642A1
:102B3C0005D170BD55F8043B98470136EEE755F8C2
:102B4C00043B98470136F2E7AC2B0008AC2B00088D
:102B5C00AC2B0008B02B000803460244934200D172
:102B6C00704703F8011BF9E7F8B500BFF8BC08BCC7
:102B7C009E467047F8B500BFF8BC08BC9E4670472F
:102B8C0002030405060708090A0B0C0D0E0F1010A2
:102B9C000000000000000000010203040607080901
:042BAC0031010008EB
:042BB0000D0100080B
:102BB400010000000100000001000000010000000D
:102BC40001000000010000000100000001000000FD
:102BD40001000000010000000100000001000000ED
:102BE400C8000000C8000000C80000000400000085
:102BF4000500000002000000030000000024F400AF
:082C04001000000001000000B7
:04000005080014D506
:00000001FF
